
: 02 0000 04 0800 F2
: 10 0000 00 00000220312B0008991F00089B1F0008 E8
: 10 0010 00 9D1F00089F1F0008A11F000800000000 8E
: 10 0020 00 00000000000000000000000021D70308 CD
: 10 0030 00 A31F000800000000B1D70308C5DB0308 B8
: 10 0040 00 812B0008A51F0008812B0008A91F0008 AC
: 10 0050 00 812B0008812B0008812B0008812B0008 D0
: 10 0060 00 812B0008812B0008812B0008812B0008 C0
:10007000B51F0008812B0008C11F0008812B000854
:10008000812B0008812B0008812B0008812B0008A0
:10009000812B0008812B0008812B0008CD1F000850
:1000A000812B0008812B0008812B0008812B000880
:1000B000812B0008E11F0008812B0008812B00081C
:1000C000812B0008812B0008812B0008812B000860
:1000D000812B0008ED1F0008812B00080520000877
:1000E000812B000811200008812B0008812B0008BB
:1000F000812B0008812B0008812B0008812B000830
:10010000812B0008812B0008812B0008812B00081F
:10011000812B0008812B0008812B0008812B00080F
:10012000812B0008812B00081D200008812B00086E
:10013000812B0008812B0008812B0008812B0008EF
:10014000812B0008812B0008812B00082920000842
:10015000812B0008812B000835200008812B000826
:10016000812B0008812B0008812B0008812B0008BF
:10017000812B0008812B0008812B00080000000063
:08018000812B0008812B00080F
:1001900010B5054C237833B9044B13B10448AFF3C1
:1001A00000800123237010BD00000020000000002B
:1001B000FC41040808B5034B1BB103490348AFF3E6
:1001C000008008BD0000000004000020FC4104087D
:1001D00010F8012B11F8013B012A28BF9A42F7D0F1
:1001E000D01A70470000000000000000000000006E
:1001F00001F0FF01102A2BDB10F0070F08D010F8D8
:10020000013B013A8B422DD010F0070F42B3F6D1DB
:10021000F0B441EA012141EA014122F007047FF0F4
:1002200000070023F0E80256083C85EA010586EA4B
:10023000010685FA47F5A3FA87F586FA47F6A5FA87
:1002400087F68EB9EED1F0BC01F0FF0102F0070293
:1002500032B110F8013B013A83EA010313B1F8D13E
:100260000020704701387047002D06BF354603381F
:10027000073815F0010F07D1013015F4807F02BF58
:10028000013015F4C03F0130F0BC0138704700BFA9
:10029000034613F8012B002AFBD1181A01387047C6
:1002A00081F0004102E000BF83F0004330B54FEA27
:1002B00041044FEA430594EA050F08BF90EA020F94
:1002C0001FBF54EA000C55EA020C7FEA645C7FEA27
:1002D000655C00F0E2804FEA5454D4EB5555B8BF4A
:1002E0006D420CDD2C4480EA020281EA030382EABB
:1002F000000083EA010180EA020281EA0303362D4D
:1003000088BF30BD11F0004F4FEA01314FF4801C1F
:100310004CEA113102D0404261EB410113F0004F31
:100320004FEA03334CEA133302D0524263EB4303E8
:1003300094EA050F00F0A780A4F10104D5F1200E86
:100340000DDB02FA0EFC22FA05F2801841F10001E1
:1003500003FA0EF2801843FA05F359410EE0A5F1B5
:1003600020050EF1200E012A03FA0EFC28BF4CF0E6
:10037000020C43FA05F3C01851EBE37101F000459C
:1003800007D54FF0000EDCF1000C7EEB00006EEBA9
:100390000101B1F5801F1BD3B1F5001F0CD3490833
:1003A0005FEA30004FEA3C0C04F101044FEA44528A
:1003B00012F5800F80F09A80BCF1004F08BF5FEA11
:1003C000500C50F1000041EB045141EA050130BDF1
:1003D0005FEA4C0C404141EB0101013C28BFB1F503
:1003E000801FE9D291F0000F04BF01460020B1FA4E
:1003F00081F308BF2033A3F10B03B3F120020CDA21
:100400000C3208DD02F1140CC2F10C0201FA0CF0FE
:1004100021FA02F10CE002F11402D8BFC2F1200C63
:1004200001FA02F120FA0CFCDCBF41EA0C01904019
:10043000E41AA2BF01EB0451294330BD6FEA040462
:100440001F3C1CDA0C340EDC04F11404C4F120024D
:1004500020FA04F001FA02F340EA030021FA04F35F
:1004600045EA030130BDC4F10C04C4F1200220FAB6
:1004700002F001FA04F340EA0300294630BD21FAF4
:1004800004F0294630BD94F0000F83F4801306BFBA
:1004900081F480110134013D4EE77FEA645C18BFAE
:1004A0007FEA655C29D094EA050F08BF90EA020F45
:1004B00005D054EA000C04BF1946104630BD91EA3D
:1004C000030F1EBF0021002030BD5FEA545C05D140
:1004D0004000494128BF41F0004130BD14F580047F
:1004E0003CBF01F5801130BD01F0004545F0FE41F3
:1004F00041F470014FF0000030BD7FEA645C1ABF28
:10050000194610467FEA655C1CBF0B46024650EA5E
:10051000013406BF52EA033591EA030F41F400218A
:1005200030BD00BF90F0000F04BF0021704730B510
:100530004FF4806404F132044FF000054FF00001E5
:1005400050E700BF90F0000F04BF0021704730B5A6
:100550004FF4806404F1320410F0004548BF40427B
:100560004FF000013EE700BF42004FEAE2014FEAD0
:1005700031014FEA02701FBF12F07F4393F07F4FAB
:1005800081F06051704732F07F4208BF704793F0AE
:100590007F4F04BF41F40021704730B54FF46074C1
:1005A00001F0004521F000411CE700BF50EA0102C4
:1005B00008BF704730B54FF000050AE050EA01026D
:1005C00008BF704730B511F0004502D5404261EBDD
:1005D00041014FF4806404F132045FEA915C3FF41E
:1005E000D8AE4FF003025FEADC0C18BF03325FEABB
:1005F000DC0C18BF033202EBDC02C2F1200300FA6C
:1006000003FC20FA02F001FA03FE40EA0E0021FA90
:1006100002F11444BDE600BF70B54FF0FF0C4CF47E
:10062000E06C1CEA11541DBF1CEA135594EA0C0F30
:1006300095EA0C0F00F0DEF82C4481EA030621EA6B
:100640004C5123EA4C5350EA013518BF52EA0335A6
:1006500041F4801143F4801338D0A0FB02CE4FF058
:100660000005E1FB02E506F00042E0FB03E54FF088
:100670000006E1FB03569CF0000F18BF4EF0010E80
:10068000A4F1FF04B6F5007F64F5407404D25FEA7C
:100690004E0E6D4146EB060642EAC62141EA55512F
:1006A0004FEAC52040EA5E504FEACE2EB4F1FD0C71
:1006B00088BFBCF5E06F1ED8BEF1004F08BF5FEAEF
:1006C000500E50F1000041EB045170BD06F00046A1
:1006D00046EA010140EA020081EA0301B4EB5C044E
:1006E000C2BFD4EB0C0541EA045170BD41F4801146
:1006F0004FF0000E013C00F3AB8014F1360FDEBF6B
:10070000002001F0004170BDC4F10004203C35DA46
:100710000C341BDC04F11404C4F1200500FA05F3C9
:1007200020FA04F001FA05F240EA020001F000426A
:1007300021F0004110EBD37021FA04F642EB0601E0
:100740005EEA430E08BF20EAD37070BDC4F10C040A
:10075000C4F1200500FA04F320FA05F001FA04F2CE
:1007600040EA020001F0004110EBD37041F10001BA
:100770005EEA430E08BF20EAD37070BDC4F12005C5
:1007800000FA05F24EEA020E20FA04F301FA05F22D
:1007900043EA020321FA04F001F0004121FA04F2D5
:1007A00020EA020000EBD3705EEA430E08BF20EAA5
:1007B000D37070BD94F0000F0FD101F000464000DF
:1007C00041EB010111F4801F08BF013CF7D041EA61
:1007D000060195F0000F18BF704703F00046520065
:1007E00043EB030313F4801F08BF013DF7D043EA36
:1007F0000603704794EA0C0F0CEA135518BF95EAEC
:100800000C0F0CD050EA410618BF52EA4306D1D172
:1008100081EA030101F000414FF0000070BD50EA91
:10082000410606BF1046194652EA430619D094EA1B
:100830000C0F02D150EA013613D195EA0C0F05D105
:1008400052EA03361CBF104619460AD181EA030159
:1008500001F0004141F0FE4141F470014FF0000011
:1008600070BD41F0FE4141F4780170BD70B54FF0AC
:10087000FF0C4CF4E06C1CEA11541DBF1CEA13552C
:1008800094EA0C0F95EA0C0F00F0A7F8A4EB05040E
:1008900081EA030E52EA03354FEA013100F0888005
:1008A0004FEA03334FF0805545EA131343EA1263CE
:1008B0004FEA022245EA111545EA10654FEA002683
:1008C0000EF000419D4208BF964244F1FD0404F53C
:1008D000407402D25B084FEA3202B61A65EB030598
:1008E0005B084FEA32024FF480104FF4002CB6EB55
:1008F000020E75EB030E22BFB61A754640EA0C00D5
:100900005B084FEA3202B6EB020E75EB030E22BF14
:10091000B61A754640EA5C005B084FEA3202B6EB55
:10092000020E75EB030E22BFB61A754640EA9C0014
:100930005B084FEA3202B6EB020E75EB030E22BFE4
:10094000B61A754640EADC0055EA060E18D04FEAA2
:10095000051545EA16754FEA06164FEAC30343EA42
:1009600052734FEAC2025FEA1C1CC0D111F4801F0F
:100970000BD141EA00014FF000004FF0004CB6E708
:1009800011F4801F04BF01430020B4F1FD0C88BFA7
:10099000BCF5E06F3FF6AFAEB5EB030C04BFB6EBB2
:1009A000020C5FEA500C50F1000041EB045170BDA5
:1009B0000EF0004E4EEA113114EB5C04C2BFD4EBD2
:1009C0000C0541EA045170BD41F480114FF0000E56
:1009D000013C90E645EA060E8DE60CEA135594EAD2
:1009E0000C0F08BF95EA0C0F3FF43BAF94EA0C0FD5
:1009F0000AD150EA01347FF434AF95EA0C0F7FF44A
:100A000025AF104619462CE795EA0C0F06D152EA9D
:100A100003353FF4FDAE1046194622E750EA410681
:100A200018BF52EA43067FF4C5AE50EA41047FF492
:100A30000DAF52EA43057FF4EBAE12E74FF0FF3CF7
:100A400006E000BF4FF0010C02E000BF4FF0010CC8
:100A50004DF804CD4FEA410C7FEA6C5C4FEA430C41
:100A600018BF7FEA6C5C1BD001B050EA410C0CBF90
:100A700052EA430C91EA030F02BF90EA020F0020F2
:100A8000704710F1000F91EA030F58BF994208BF59
:100A900090422CBFD8176FEAE37040F00100704716
:100AA0004FEA410C7FEA6C5C02D150EA013C07D16D
:100AB0004FEA430C7FEA6C5CD6D152EA033CD3D0B8
:100AC0005DF8040B704700BF8446104662468C46B2
:100AD0001946634600E000BF01B5FFF7B7FF0028E5
:100AE00048BF10F1000F01BD4DF808EDFFF7F4FF0E
:100AF0000CBF012000205DF808FB00BF4DF808ED99
:100B0000FFF7EAFF34BF012000205DF808FB00BFBB
:100B10004DF808EDFFF7E0FF94BF012000205DF8DD
:100B200008FB00BF4DF808EDFFF7CEFF94BF012092
:100B300000205DF808FB00BF4DF808EDFFF7C4FF8B
:100B400034BF012000205DF808FB00BF4FEA410CD4
:100B50007FEA6C5C02D150EA013C0AD14FEA430CB7
:100B60007FEA6C5C02D152EA033C02D14FF00000F4
:100B700070474FF0010070474FEA410212F5001232
:100B800015D211D56FF47873B3EB625212D94FEAD4
:100B9000C12343F0004343EA505311F0004F23FABE
:100BA00002F018BF404270474FF00000704750EA13
:100BB000013005D111F0004008BF6FF000407047D0
:100BC0004FF00000704700BF4A0011D212F500122A
:100BD00011D20DD56FF47873B3EB62520ED44FEA95
:100BE000C12343F0004343EA505323FA02F0704715
:100BF0004FF00000704750EA013002D14FF0FF3053
:100C000070474FF0000070477BB972B90029BEBF32
:100C100000204FF0004106E008BF00281CBF6FF025
:100C200000414FF0FF3000F0F1B9ADF1080C6DE973
:100C300004CE002909DB002B1ADB00F083F8DDF875
:100C400004E0DDE9022304B07047404261EB41015A
:100C5000002B1BDB00F076F8DDF804E0DDE9022371
:100C600004B0404261EB4101524263EB43037047E1
:100C7000524263EB430300F065F8DDF804E0DDE980
:100C8000022304B0404261EB41017047524263EBE2
:100C9000430300F057F8DDF804E0DDE9022304B077
:100CA000524263EB4303704753B94AB9002908BF66
:100CB00000281CBF4FF0FF314FF0FF3000F0A6B905
:100CC000ADF1080C6DE904CE00F03CF8DDF804E06D
:100CD000DDE9022304B0704738B500220023044642
:100CE0000D46FFF70BFF28B920462946BDE83840DE
:100CF00000F00AB8204605F1004100F005F8404236
:100D000061EB410138BD00BFD0B50C4B0022064657
:100D10000F46FFF781FCFFF757FF0446FFF702FC81
:100D2000074B0022FFF778FC02460B463046394657
:100D3000FFF7BAFAFFF748FF2146D0BD0000F03DAB
:100D40000000F0412DE9F047089E0D4604460F468D
:100D5000002B4AD18A42944665D9B2FA82F343B154
:100D600002FA03FCC3F120029F4020FA02F217436B
:100D70009C404FEA1C4E1FFA8CF5B7FBFEF1220C8B
:100D80000EFB117742EA074201FB05F090420AD9B7
:100D90001CEB020201F1FF3780F01C81904240F20F
:100DA000198102396244121AA4B2B2FBFEF00EFBA2
:100DB000102244EA024400FB05F5A5420AD91CEBC7
:100DC000040400F1FF3280F00781A54240F2048163
:100DD0006444023840EA0140641B00211EB1DC403B
:100DE0000023C6E90043BDE8F0878B4208D9002EF6
:100DF00000F0ED800021C6E900050846BDE8F08757
:100E0000B3FA83F1002949D1AB4202D3824200F206
:100E1000F880841A65EB030201201746002EE2D009
:100E2000C6E90047DFE702B9FFDEB2FA82F3002B22
:100E300040F090808A1A4FEA1C471FFA8CFE01216D
:100E4000B2FBF7F507FB1520220C42EA00420EFB2D
:100E500005F0904208D91CEB020205F1FF3802D2DE
:100E6000904200F2CB804546121AA4B2B2FBF7F0D2
:100E700007FB102244EA02440EFB00FEA64508D9F7
:100E80001CEB040400F1FF3202D2A64500F2BB8045
:100E90001046A4EB0E0440EA05409FE7C1F120078D
:100EA0008B4022FA07FC4CEA030C05FA01F420FA05
:100EB00007F3FD404FEA1C492343B5FBF9F81FFA3D
:100EC0008CFE09FB18551C0C44EA054408FB0EF582
:100ED000A54202FA01F200FA01F00BD91CEB04045E
:100EE00008F1FF3A80F08880A54240F28580A8F1A1
:100EF00002086444641B9DB2B4FBF9F309FB13447C
:100F000045EA044403FB0EFEA64508D91CEB040485
:100F100003F1FF356CD2A6456AD9023B644443EA2B
:100F20000843A3FB0295A4EB0E04AC42C846AE46B0
:100F300056D353D056B1B0EB080264EB0E0404FA5A
:100F400007F7CA40CC401743C6E900741846002191
:100F5000BDE8F087C3F1200102FA03FC20FA01F298
:100F600025FA01F19D402A434FEA1C471FFA8CFEE7
:100F7000B1FBF7F007FB1015110C41EA054100FB2E
:100F80000EF58D4204FA03F408D91CEB010100F1BF
:100F9000FF382FD28D422DD902386144491B92B2BD
:100FA000B1FBF7F507FB151142EA014205FB0EF113
:100FB000914208D91CEB020205F1FF3816D291428A
:100FC00014D9023D6244521A45EA004138E73146DD
:100FD000304608E73946E6E61046FBE64845A9D222
:100FE000B9EB020865EB0C0E013BA3E74546EAE7C7
:100FF0002B4694E74046D1E7D0467BE7023D62446A
:1010000032E708460AE76444023842E7704700BF07
:1010100007B51C4B00220092196B41F400111963B3
:10102000196B01F40011009100990192196B41F4C0
:10103000800119631B6B03F48003019305210C20CD
:10104000019B01F0C5FD0C2001F0F4FD00220521FB
:101050000E2001F0BDFD0E2001F0ECFD0022052167
:101060003A2001F0B5FD3A2001F0E4FD002205210F
:10107000462001F0ADFD462003B05DF804EB01F021
:10108000D9BD00BF0038024008B53CF0F7FD054C63
:10109000002523784FF47A70012B08BF25703CF0AF
:1010A000CFFDF6E74BA4002008B5054C00252388AA
:1010B00003201B0448BF25803CF0B8F8F7E700BFC9
:1010C000C005002008B5054C6368002098471EF055
:1010D00055FE05203CF0AAF8F6E700BFA84900102D
:1010E000034B0360034B0B6080231360704700BF0A
:1010F000280200202800002070B5174C26460FCE8D
:1011000096B001AD0FC596E8070085E807000021FD
:1011100001A83AF05BFF114B04F11C0618600FCEDA
:1011200008AD0FC596E8070085E80700002108A86C
:101130003AF04CFF0A4B383418600FCC0FAD0FC596
:1011400094E8070085E8070000210FA83AF03EFF69
:10115000044B186016B070BD184204081C00002033
:10116000240000202000002010B510248EB022465C
:10117000002103A83EF07DFC224600210AA83EF093
:1011800078FC194804944FF02043036003F5827300
:10119000062243600023C0E902234FF48052C0E9D5
:1011A0000A234FF48042C0E90C233C220921C0E904
:1011B0000434C0E90633C0E9083383634364029210
:1011C0000F231122CDE90713CDE90033CDE90B42FE
:1011D0000592082307AA6946099303F0ACFA08B1FF
:1011E00000F008FD0EB010BDA40300202DE9F04171
:1011F0001F4A136886B0002B37D1012400931D4B82
:1012000014609A6B1C4822439A639B6B039423409F
:10121000022703260C2500934FF4805801A9009B58
:10122000CDE90187CDE9046501F0FCFE4FF680733E
:101230001248059501A9CDE90137CDE9034601F032
:10124000F1FE0F4805954CF2337301A9CDE9013742
:10125000CDE9034601F0E6FE0A48059501A9CDE96E
:101260000187CDE9034601F0DDFE06B0BDE8F0815F
:10127000A003002000380240001402400010024089
:10128000000C0240001802402DE9F04F8FB01422EC
:10129000002109A83EF0EDFB00258C4B0195196B50
:1012A000DFF83C82DFF83C92DFF83CA2884E894FA1
:1012B00041F010011963196B01F0100101910199BE
:1012C0000295196B41F004011963196B01F00401D7
:1012D000029102990395196B41F020011963196B72
:1012E00001F02001039103990495196B41F08001ED
:1012F0001963196B01F08001049104990595196B2C
:1013000041F001011963196B01F001010591059983
:101310000695196B41F002011963196B01F0020186
:10132000069106990795196B41F008011963196B2D
:1013300001F00801079107990895196B41F04001E8
:1013400019631B6B03F040030893089B624B2A460A
:1013500018467C2101F046FF2A4640464FF4F861CA
:1013600001F040FF2A4648468D2101F03BFF2A4606
:1013700050464FF4847101F035FF2A4630464FF451
:10138000204101F02FFF2A463846402101F02AFF74
:101390002A465248402101F025FF4F4B01247C2171
:1013A0004FF0030BCDE90914184609A90B94CDF8A9
:1013B00030B001F037FE4FF4F86309A94046CDE99B
:1013C0000934CDE90B4B01F02DFE8D2309A94846C8
:1013D000CDE90934CDE90B4B01F024FE4FF48473C1
:1013E00009A95046CDE909344FF04008CDE90B4B2F
:1013F00001F018FE09A95046CDE909850B9501F0C9
:1014000011FE4FF4805309A93046CDE909350B95FB
:1014100001F008FE4FF4005309A93046CDE9093424
:10142000CDE90B5B01F0FEFD4FF4004309A9304606
:10143000CDE90934CDE90B4B01F0F4FD09A938469B
:10144000CDE90984CDE90B5B01F0ECFD802309A90E
:101450003846CDE909350B944FF4041A01F0E2FD4A
:101460004FF4807309A93846CDE9093A0B9401F08D
:10147000D9FD09A948460B94CDE9098A01F0D2FDAE
:1014800009A91648CDE90984CDE90B4B01F0CAFD45
:1014900002244FF4024309A93846CDE909350B94DB
:1014A00001F0C0FDC02309A93046CDE909350B94F0
:1014B00001F0B8FD2A460521172001F089FB17200D
:1014C00001F0B8FB0FB0BDE8F08F00BF003802405C
:1014D000000402400018024000100240000C0240CC
:1014E000001402400008024000000240F8B5284DF8
:1014F000D5F83022002A41D1264B197800293DD059
:10150000254E1A70377857BB0A203CF099FBD5F866
:101510003032012B03D11F4B01221A70F8BD1F4C32
:10152000012032F0F5FCC4F88C72C8203BF07EFE3E
:101530000123C4F88C324FF4FA7033703BF076FE1E
:1015400033F028F8164B1B68984727F0F5FA154B2F
:10155000186805F04BF8BDE8F8402AF053BEC824DF
:101560000A203BF063FED5F83032012BD3D0013C8A
:10157000F6D1204632F0CCFC3470CFE7D5F83032CB
:10158000012BCBD1034B1B78002BC4D0C6E700BF87
:101590000080404200000010F6030020000041429D
:1015A000A8490010D052002023280AD8202894BF30
:1015B000002001207047054B23FA00F000F00100E5
:1015C000704730381328F6D9002070470F000D00FF
:1015D000502805D0A0F1B10358425841400070474F
:1015E000012070472DE9F04F4FF0000A8DB00746FB
:1015F0002022884604A851463EF03BFA384626F0A1
:10160000BDFA8346384626F0C3FAAB4B1B780A2B4B
:10161000044635D029F0ACFE257864782146824610
:1016200029F0CAFE0646A549384607F067FE20B3F2
:10163000DFF8A892D9F8000005F046FC002840F039
:10164000B780B8F1020F09D0B8F1410F06D0B8F158
:10165000200F03D04046FFF7A7FFE0B19849384676
:1016600026F024FED9F80000012105F0C7FB954AB9
:101670004FF4C87138460BF075FC0DB0BDE8F08F23
:101680003CF046FC84B2904B1322204650431A187B
:101690001D5C5678C7E7B8F1510F02D0B8F1C10F01
:1016A0000FD1854B1B780A2BE7D1013D042DE4D8DF
:1016B000D9F80000012105F0A1FB384631F0DEFC2D
:1016C000D5E7B8F1010FD8D1DFF81492D9F80000AE
:1016D00026F05EFA3CF01CFC0C2C1FFA80F82AD194
:1016E000794CD4F8FA30D4F8E700D4F8EB70D4F899
:1016F000FE10C01847EB01012B460C222AF040FBDC
:10170000C4F8E7000246C4F8EB100B46CDE90056DA
:1017100004A829F017FFB8F10C0F04D1D9F8000084
:1017200004A926F0C3FD694B04A9186826F0BEFD84
:101730002AF002FFA1E7122C9FD1634FD7F86C313A
:10174000D7F85901D7F85DC1D7F87011C0182246F3
:101750002B464CEB01012AF013FB02460B46D7F84F
:101760009601D7F89211014309D0D7F8A501D7F80F
:10177000A911904271EB0304BCBF02460B465449C9
:10178000C7F8592104A84B60CDE9005629F0DAFECC
:10179000B8F1120F04D1D9F8000004A926F086FD93
:1017A0004C4B04A9186826F081FD2AF0DBFE64E7A3
:1017B000B8F1510F03D0B8F1C10F40F09380D9F8C0
:1017C000000005F081FB002800F08C800021D9F892
:1017D000000005F013FB5846FEF75AFD5946024635
:1017E00004A83EF063FAFF2C59D0334B022C1B782F
:1017F00023D90A2B23D133462A46214604A82AF0AE
:10180000EDFACDE90056814602460B4604A888460B
:1018100029F098FE00964A46434620462AF094FD59
:1018200004A9384626F042FD4846224641462AF0A1
:10183000FFF920462AF050FA31E00A2B2FD0334628
:101840002A46214604A82AF0C9FA1B4B1B78012B13
:10185000814688460BD12346524629F0F5FE009674
:10186000234652468146884629F00CFF06464A46E2
:101870004346CDE9005604A829F064FEE4B2009680
:101880004A464346214650462AF08EFD22463146BE
:1018900004A829F04BF904A9384626F007FD0E4BA1
:1018A0001B680BB13846984747F6FF71384626F05B
:1018B0006FF8044A0021DDE6D10000100CCB0508CA
:1018C00012090B08020007001437001070520020A4
:1018D0006D380010D851002060540020BC53002007
:1018E00014530020B8F1530F05D0B8F1500F02D0B7
:1018F000B8F1B10F5ED1D9F8000005F0E5FA002883
:1019000058D0092D05D84FF40973EB40DB073FF59C
:10191000B4AEFF2C3FF4B1AED9F80000002105F0C1
:101920006DFA5846FEF7B4FC5946024604A83EF04C
:10193000BDF929464046FFF74BFE2A4603460646B8
:10194000214604A82AF04AFA5C4B1B780A2B8146F0
:1019500088460CD102460B4604A8CDE9005629F072
:10196000F1FD3A463146284628F01CFF52E7012B8C
:101970000BD12346524629F067FE00962346524675
:101980008146884629F07EFE0646CDE900564A4645
:10199000434604A8E5B229F0D5FD4A4629465046FB
:1019A000009643462AF000FD2A46314604A829F055
:1019B000BDF835E7B8F1520F57D1D9F8000005F05E
:1019C00083FA00283FF459AE092D3FF456AE0021AA
:1019D000D9F8000005F012FA5846FEF759FC5946AE
:1019E000024604A83EF062F9012D01D0042D06D173
:1019F0003A460321284628F0D5FE032604E0032DAD
:101A0000F6D0AB1F012BF3D933462A46214604A852
:101A10002AF0E4F9122C02460B4611D12849D1F8DC
:101A20009201D1F896C150EA0C0009D0D1F8A50175
:101A3000D1F8A911904271EB030CBCBF02460B46D2
:101A4000CDE9005604A8CDE9023229F07BFD1B4BFD
:101A500019780A29DDE9023204D1009620462AF0DD
:101A600073FC18E7E4B200960CE7B8F1030F7FF4BB
:101A700004AED9F8000005F027FA00283FF4FDADC8
:101A8000D9F80000002105F0B9F9022C11D90C4B4E
:101A9000CDE90056132202FB043304A8D3F8032037
:101AA000D3F8073029F04EFD04A9384626F0FEFB96
:101AB000FAE6214604A829F0ABF9F5E7D1000010B9
:101AC0001437001030B5002495B02146142203A825
:101AD000CDE90B440D943DF0CCFF214B01941A6CE1
:101AE00042F080521A641B6C03F080530193019BF7
:101AF0001C4B02941A6842F480421A601B6803F47B
:101B000080430293029B05254FF48033CDE90853AF
:101B1000012302240A934FF48003CDE90E430421EC
:101B2000A823CDE9101308A807231294139301F0FA
:101B3000D3FF08B172B6FEE70F23CDE90334059059
:101B40004FF4A0524FF48053294603A8CDE9062351
:101B500002F09CF908B172B6FEE715B030BD00BFC7
:101B6000003802400070004008B5FFF7ABFF1B4C87
:101B7000FFF78AFBFFF74CFA00F03EF800F0A4FEF6
:101B800000F0BEFEFFF7F0FA03F0E0FF00F0BAFA53
:101B9000A8203CF023F835F0E7FB31F059FE002394
:101BA000C4F88C32C8203CF04BF80123C4F88C32C6
:101BB000C8203CF045F807F0D3F804F089F804F0A9
:101BC00079FC96203CF03CF828F05CFC64203CF06A
:101BD00037F8FFF791FA3AF0F4F9FEE700004142D6
:101BE0000268034B9A4201D100F0CCBF704700BF9E
:101BF0000004004072B6FEE710B590B00024142235
:101C0000002101A83DF035FF2822214606A80094B6
:101C10003DF02FFF3148324B8461C0E900347F2210
:101C2000FF23C0E90223C0E9044402F018FB08B115
:101C3000FFF7E0FF42F611732848ADF804300022A8
:101C400001A9CDE904448DF8064002F056FB08B125
:101C5000FFF7D0FF234B214800930022694602F092
:101C6000A6FB08B1FFF7C6FF42F61163ADF81830C6
:101C700005238DF81A301C4B18480022CDE90B3291
:101C800003238DF8383006A94FF48073CDE909227B
:101C900007920D920F9302F0D3FB08B1FFF7AAFF52
:101CA0001E238DF81A30114B0B9301238DF8383019
:101CB0000A484FF40073002206A90F9302F0C0FBFC
:101CC00008B1FFF797FF05480422002102F0B2FC9B
:101CD00008B1FFF78FFF10B010BD00BFF803002060
:101CE00000280040030216180000808000808080D9
:101CF0001FB504461022002168463DF0BAFE226856
:101D0000114B9A421ED10223009368464FF4807310
:101D1000039302F093F908B1FFF76CFF0B4B01221C
:101D2000C3F83C2E05210022032000F051FF0320C0
:101D300000F080FF29200022052100F049FF292022
:101D400000F078FF04B010BD0028004000004742BA
:101D500030B597B0002204A9054602F02AFC0446DB
:101D600000283CD1014628221E483DF082FE282250
:101D700021461D483DF07DFE3222214609A83DF056
:101D800078FE224603A9284602F036FC9DF80F2073
:101D90009DF80E301549009302F5FA629DF80D305A
:101DA00010483DF025FD9DF812309DF81020104997
:101DB00000930D489DF811303DF01AFD0A4909A81D
:101DC0003DF05FFE0B4909A83DF05BFE054909A8FF
:101DD0003DF057FE084B09A9186823F083F817B0A7
:101DE00030BD00BF1804002040040020FB4304085D
:101DF00009440408BDD70A082C53002030B585B02B
:101E000003788DF8083043788DF8093083788DF8A1
:101E10000A3000250446C3788DF80B3002A88DF8EF
:101E20000C503CF075F823798DF808303030637928
:101E30008DF8070002A88DF80930ADF80A508DF82A
:101E40000C503CF065F8A3798DF805008DF808304A
:101E500002A8E3798DF80930ADF80A508DF80C50DE
:101E60003CF056F804238DF806002A460DEB0301DA
:101E700003488DF8043002F09AFA05B030BD00BF77
:101E8000F803002030B589B003788DF804300025C0
:101E9000044643788DF8053001A8ADF806508DF85A
:101EA00008503CF035F8A3788DF80C008DF804301C
:101EB00001A8E3788DF80530ADF806508DF808508C
:101EC0003CF026F823798DF80D008DF8043001A838
:101ED00063798DF80530ADF806508DF808503CF068
:101EE00017F82A468DF80E0003A9024802F005FAF9
:101EF00009B030BDF803002070B588B0002302930C
:101F0000204B1A6C42F002021A641B6C03F00203AD
:101F10000293054601A903A8029B02F071F8069BF3
:101F20004BBB02F04DF8184E184B336040F2E733CC
:101F3000F360174BB0FBF3F3013B736030460023B3
:101F40003361B360B36102F06BFD044680B9304683
:101F500002F020FC044658B91D2000F06BFE0F2D46
:101F60000DD8224629461D2000F032FE094B1D6087
:101F7000204608B070BD02F023F84000D3E70124EA
:101F8000F6E700BF0038024068040020000400406B
:101F900040420F000C000010FEE7FEE7FEE7FEE700
:101FA000FEE7704701F08ABD014802F0ABBB00BFFD
:101FB000F8030020014800F077BF00BF840600202E
:101FC000014800F071BF00BFE406002008B54020C2
:101FD00001F00EF9BDE808404FF4807001F008B937
:101FE000014802F015BC00BF6804002008B5044891
:101FF00002F0BAFFBDE80840014800F001BC00BF94
:1020000044070020014802F0AFBF00BF880700204E
:10201000014802F0ADB800BFF8030020014800F00D
:1020200043BF00BFC4050020014801F0E5B900BF6F
:10203000800E0120014800F037BF00BF24060020B9
:102040000120704708B53DF0EFFD162303604FF007
:10205000FF3008BD08B53DF0E7FD16230360FEE73D
:1020600070B50D4614460E46731B9C4201DC20469B
:1020700070BDAFF3008006F8010BF5E770B50D46B3
:1020800014460E46731B9C4201DC204670BD16F8B8
:10209000010BAFF30080F5E74FF0FF3070474FF4CE
:1020A00000534B60002070470120704700207047AC
:1020B0000B4A116810B5034609B90A491160106846
:1020C00009490A4C0344091B8B4206D93DF0ACFD7B
:1020D0000C2303604FF0FF3010BD1360FCE700BF1E
:1020E000B00400209014012000000220000800002D
:1020F000034AD2F8883043F47003C2F8883070473E
:1021000000ED00E010B5064C06494FF48062204611
:1021100003F0BEF82268D36843F01003D36010BD0B
:1021200044070020CC07002010B57E2404704470C2
:102130009DF8084084700A24C470C0F80B30002455
:102140006FF018030471A0F80510C0F80720C373DE
:102150000374112010BD0000F0B57E250570457098
:10216000022585701C25C570154DA0F807202E7816
:102170004671002404718171083B22460A2500F152
:10218000050C53F8084F022E596807D1012A02BFE7
:1021900005FB01F7A4FB0541C91901E0002EF5D0AC
:1021A0000CEBC2070132032A7C60B960E9D16FF001
:1021B000180380F8213080F822302320F0BD00BFC2
:1021C000540200102DE9F04FAC4BDFF81483AC4DF6
:1021D0001A688FB00A234FF0000AB2FBF3F303939F
:1021E000BDF80C30534502DC0FB0BDE8F08F42461D
:1021F000D8F8020032F8026B516804AB03C3A14B5C
:102200001B780A2B40F0B48013237343EB5C022B42
:1022100001D0052B51D1DDE904010A220023FEF78C
:10222000F3FC122ECDE904013ED1D5F89231D5F858
:102230009621013B13430BD1D5F8A521D5F8A9313F
:10224000904271EB0304BCBF02460B46CDE9042368
:10225000132373433246EB5CDDE9040129F090FD62
:10226000324629F071FD2022CDE9040104468B4657
:1022700006A800213DF0FDFB834922465B4606A8E7
:102280003DF0B6FA0C2E20D195F8E52001920122FE
:1022900000925B46224606A829F054F97B4B06A91A
:1022A000186826F003F85AE0162E06D1784B18600D
:1022B0005960122029F010FDCAE7152EDDE904123D
:1022C000C6D1744B19605A60F3E7F21E2A2A46D829
:1022D000DFE812F09E004500450045004500B400CF
:1022E000450073008200450045002B002B0045008F
:1022F0009C00660045002B00450045004500450058
:102300004500450045003F013F01450045004500AF
:10231000450008011D014500C60045004500D100EB
:102320004500450045004500C1000F2E12D140F286
:10233000E93294427BF10002A8BF4FF47A745B4605
:10234000A8BF0023012C73F10002BCBF01240023AD
:10235000CDE90443DDE90401324629F021FB1323D2
:1023600003FB0653049AC3F80320059AC3F8072019
:10237000444B1B780B2B0ED1002E40F0F080464BC7
:1023800001221A6029F03EFF444B1B68012B02D149
:10239000304628F0EDF908F10A080AF1010A1FE7B2
:1023A00095F857210192022200925B46224606A828
:1023B00029F0C8F83A4B06A972E73A4AE143C2F855
:1023C0009812013C384A54EA0B04106814BF37498C
:1023D000374922F087FDC2E7364AE143C2F89C1232
:1023E000354A013C106854EA0B0214BF33493449A2
:1023F00022F078FD334B54EA0B0414BF0120002077
:10240000002218605A6028F0DFFCA8E7E0B2FAE783
:10241000224B2D4F1C604CB128F0D6FA38680121B0
:1024200006F009FD002028F0A3F998E7012028F024
:102430009FF93868012106F0C9FC90E7621E52EA54
:102440000B0203D12149224B1868C2E754EA0B035F
:1024500085D12049F7E72046594630F0D9F87EE784
:102460001D4B00221A705A709A70DA701A715A71E4
:102470009A71DA7173E7194BF3E700BFB4050020D6
:1024800014370010B4040020FCD70A087052002052
:10249000B9380010A6380010BC050020B80500208F
:1024A000D8510020008041420453002036440408E3
:1024B0003044040800004142F8520020444404081B
:1024C0003D4404085A380010005300204C440408CE
:1024D000FC52002054440408E9390010223A00104C
:1024E000B5040020D5F81722D5F82A02D5F82E1207
:1024F000D5F81B72801A61EB0701621E6BF10003B5
:10250000FEF782FBC5F89C02C5F8A01227E7D5F8B4
:102510001722D5F82A72D5F81B12D5F82E92BF1AB9
:1025200069EB010922465B4638464946FEF76CFBDB
:1025300002460B468B46044649463846FEF764FB86
:102540000D4A01344BF10003CDE9040114605360DE
:10255000D8E732462046594629F030FBFFE6022EE6
:1025600003D1012029F0C2FC15E7032E7FF413AF3D
:10257000012029F079FD0EE79D3900102DE9F04F7B
:10258000934B87B01E7893F801905C881A1D6F46B4
:102590001C33106851683D4603C508329A422F46E5
:1025A000F7D1012E50D18B49DDE90065D1E9002337
:1025B000D1E9020C964275EB0301BCBF16461D46DD
:1025C000B0427CEB0501DDE90217BCBF064665465B
:1025D000914277EB030EBCBF11461F4688427CEB4D
:1025E00007038846BCBF80466746B04577EB0503C6
:1025F000BCBF46463D46B9F1010FCDE90287CDE9A2
:10260000006518D0B9F1020F1CD0B9F1000F0FD13D
:10261000013CA0B22EF040F96F4A18235C43131915
:102620001651C3E90158DF60DDE90401C3E9040183
:1026300007B0BDE8F08F601E80B207B0BDE8F04F74
:102640002EF05EB9013CE7E7002E50D1DDE9020132
:102650000A220023FEF7D8FA604BDDE90076D3E9C1
:102660000052AF4276EB020CB8BF1646D3E9022304
:10267000B8BF2F46BA4273EB0605B8BF1E46584B8B
:10268000B8BF1746D3E90025824275EB010CB8BFED
:102690000D46D3E90213B8BF02469142904673EB50
:1026A0000502BCBF88461D46B9F1010FCDE9007691
:1026B000CDE9028512D0B9F1020F16D0B9F1000FA1
:1026C000B6D1013CA0B22AF0A9FE464B220103EB91
:1026D00004149F50C4E90168E560A9E7601E80B258
:1026E00007B0BDE8F04F2AF0CBBE013CEDE7022E6B
:1026F0009ED1DDE902010A220023FEF785FA374B5D
:10270000DDE90052D3E90076BD4272EB060CB8BF9A
:102710003246D3E90263B8BF3D469246AE4273EB00
:102720000A02B8BF9A462E4BD3E90027AB46B8BF82
:10273000B346824277EB0105B8BF0F46D3E90213D7
:10274000B8BF02469142904673EB0702B8BF1F46DE
:10275000254BDDE90465B8BF8846D3E900128E42F7
:1027600075EB0200B8BF1546D3E90223B8BF0E4689
:10277000B24273EB0501BCBF16461D46B9F1010F0D
:10278000CDE900BACDE90287CDE9046516D0B9F1EB
:10279000020F1AD0B9F1000F7FF44AAF013CA0B28A
:1027A0002CF0A4FE114A18235C43131942F804B01C
:1027B000C3E901A8C3E903765D6139E7601E80B211
:1027C00007B0BDE8F04F2CF0C7BE013CEAE700BF00
:1027D000B5040020D8460010483C0010400200100C
:1027E000C0000010F0000010D800001058020010C7
:1027F0008AB21E230146014802F030BA4407002085
:10280000F7B52B4C23681A68D2064ED500220192E8
:102810001A6801925B6801932046019B254E02F0E5
:1028200072FAA36B244C1B685B68C3F580639BB290
:10283000338023787E2B1ED163787E2B1BD11F4BD8
:10284000A778B4F803501F701D4B1E481D602A4620
:102850002544611D3DF02AFA6B79E72B0BD1AB794A
:10286000E72B08D1022F1DD1FFF788FE1548FF2264
:1028700000213DF0FEF833889BB20022E2543388F9
:102880006FEA43436FEA53439BB2052033803BF02A
:10289000D7F9094906484FF4806203B0BDE8F0401B
:1028A00002F0F6BCFFF78EFCE0E703B0F0BD00BF1E
:1028B00044070020C0050020CC070020B4040020FD
:1028C000B4050020B50400200B480C4A08B54FF4AD
:1028D000E133C0E9002300230C22C0E90233C0E940
:1028E00005230361C36102F08BF918B1BDE808400C
:1028F000FFF780B908BD00BF440700200010014069
:1029000010B5104A104C4FF4E133C4E900232046BF
:1029100000230C22C4E90233C4E905232361E361E7
:1029200002F06EF908B1FFF765F94FF480620749CC
:10293000054802F0ADFC2268D36843F01003D36071
:1029400010BD00BF0048004088070020CC070020D1
:1029500070B514228AB0054600210DEB02003DF04F
:1029600088F82B68654A934264D1654B654C002614
:1029700001965A6C42F010025A645A6C02F010022E
:102980000192019A02961A6B42F001021A631B6BC4
:1029900003F001030293029B4FF4C0610223CDE9CF
:1029A000051301200323CDE9070305A90723564892
:1029B000099300F037FBDFF86CC14FF00063C4E906
:1029C00000C34FF48063C4E9043620464FF400335B
:1029D000C4E90266C4E90666C4E9083600F05AF99B
:1029E00008B1FFF707F9AC63DFF83CE1A563474C9A
:1029F0004FF000634022C4E900E30023C4E902234E
:102A000020464FF48062C4E90423C4E90633C4E9D4
:102A1000083300F03FF908B1FFF7ECF86C632520AC
:102A200000220521A56300F0D3F8252000F002F96B
:102A30000AB070BD364A9342FAD1314B0026039654
:102A40001A6C42F480221A641A6C02F480220392F7
:102A5000039A04961A6B42F002021A631B6B03F08E
:102A600002030493049B4FF440600223CDE9050365
:102A700001240323CDE907432648274C072305A952
:102A8000099300F0CFFADFF8A4C04FF00063C4E967
:102A900000C34FF48063C4E9043620464FF400338A
:102AA000C4E90266C4E90666C4E9083600F0F2F833
:102AB00008B1FFF79FF8194AAC63A563184C4FF0B3
:102AC0000063C4E90023402100234FF480622046C4
:102AD000C4E90213C4E90423C4E90633C4E9083392
:102AE00000F0D8F808B1FFF785F86C6327200022C2
:102AF0000521A56300F06CF8272097E7001001403E
:102B000000380240C40500200000024024060020D6
:102B10000048004000040240840600205860024043
:102B2000E406002040640240B8640240286002408D
:102B3000DFF834D00D480E490E4A002302E0D45885
:102B4000C4500433C4188C42F9D30B4A0B4C0023F5
:102B500001E013600432A242FBD3FFF7C9FA3DF053
:102B600069F8FFF701F8704700000220000000102C
:102B7000C850001068B90D08000000209014012012
:102B8000FEE70000034A044B11681B780B441360F6
:102B9000704700BFCC0B002008000010014B1868E4
:102BA000704700BFCC0B002038B50446FFF7F6FF96
:102BB000631C1CBF054B1B78054618BFE418FFF7C4
:102BC000EDFF431BA342FAD338BD00BF080000103D
:102BD000164B30B5DC68C4F30224C4F10703251D8D
:102BE000042B28BF0423062D4FF0FF358CBF033C78
:102BF000002405FA03F321EA0303A54022EA0502B3
:102C0000A340002843EA0203ACBF00F16040084A39
:102C10004FEA0313B8BF00F00F00DBB2AABF00F504
:102C20006140135480F8003330BD00BF00ED00E078
:102C300014ED00E0002807DB4109044A00F01F0002
:102C40000123834042F82130704700BF00E100E0DB
:102C50004FF0E02304281A690CBF42F0040222F06E
:102C600004021A6170470000036810B5DAB2103A26
:102C7000074C23F47F7323F003035F2A88BF0433D8
:102C80001821B2FBF1F1615CC1658365184610BD86
:102C90005C44040870B50446FFF780FF0546002C2D
:102CA00071D0022384F835302268002384F8343050
:102CB000136823F00103136022681368D8072ED429
:102CC00013683248A1691840D4E901352B43E568FF
:102CD0002B4325692B4365692B43E5690B432B4344
:102CE000256A2B430343606A042802BFD4E90B56CC
:102CF00035432B4313605369042823F0070343EA49
:102D0000000332D1A06AE56A034375B391B9012883
:102D100020D030F0020128D1E90126D51DE0FFF7CF
:102D20003DFF401B0528C7D920236365032084F895
:102D3000350070BDB1F5005F13D1032815D801A18E
:102D400051F820F05B2D0008192D00085B2D0008BC
:102D5000552D0008B5F1C07F07D1402363650120E0
:102D6000E5E70228F9D90328D6D053612046FFF7BA
:102D70007BFFE26D3F239340836000200123606569
:102D800084F83530D5E70120D3E700BF3F8010F04D
:102D900070B590F83440866D012C31D0012480F854
:102DA000344090F83540012C4FF000054FF00204FC
:102DB00024D180F8354004684565256825F48025D0
:102DC000256063608368402B0EBFA260A160E26053
:102DD000C26D08BFE1603F239340B360236843F0B6
:102DE00016032360036C1BB1236843F008032360C0
:102DF000236843F001032360002070BD80F8345045
:102E00000220FAE770B50446866DFFF7C7FE94F816
:102E10003530022B054606D0802363650120002350
:102E200084F8343070BD23681A6822F016021A60E4
:102E30005A6922F080025A61226C0AB9A26C1AB156
:102E40001A6822F008021A601A6822F001021A6059
:102E500023681B6813F0010308D1E16D3F228A400B
:102E6000B260012284F835201846D8E7FFF796FEB5
:102E7000401B0528ECD920230320636584F8350026
:102E8000CDE790F83530022B03D080234365012035
:102E900070470268052380F83530136823F001037A
:102EA0001360002070470000F7B5002301935C4BCE
:102EB000856D1F68C36D2E6808229A403242044611
:102EC0000CD001680868400708D5086820F00400A5
:102ED0000860AA60626D42F00102626501229A40B8
:102EE000324208D021684969090641BFAA60626D73
:102EF00042F00202626504229A40324208D0216800
:102F00000968880741BFAA60626D42F004026265E9
:102F100010229A40324210D02368196809070CD554
:102F2000AA601A68500337D51B68190301D4236CB3
:102F300000E0A36C0BB120469847E16D20228A4047
:102F400032423AD023681868C60636D5AA6094F88B
:102F50003520052A1A6827D122F016021A605A690C
:102F600022F080025A61226C0AB9A26C1AB11A6866
:102F700022F008021A603F238B40AB60012384F8E3
:102F80003530002384F83430236D002B45D02046A3
:102F900003B0BDE8F04018471A68D2055EBF1A6852
:102FA00022F008021A60C2E7500327D51B681903F4
:102FB00031D4636C0BB120469847636D6BB3636D7E
:102FC000DA0719D522684FF41653B7FBF3F7052338
:102FD00084F83530136823F001031360019B01333B
:102FE000BB42019302D81368DB07F7D4012384F8AE
:102FF0003530002384F83430E36CC6E71A6812F4E5
:10300000807208D1196821F010011960012384F839
:10301000353084F83420E36BCCE703B0F0BD00BF5B
:10302000040000102DE9F74FDFF8A891674A00234C
:103030000D6801249C4004EA050CAC4340F0B180CB
:103040004D6805F003044FEA43080326671E06FA9D
:1030500008F6012F6FEA060634D8876807EA060EDD
:10306000CF6807FA08F747EA0E078760476827EA3C
:103070000C0EC5F300179F4047EA0E074760C7686C
:1030800007EA060E8F6807FA08F747EA0E07022CD0
:10309000C76019D14FEAD30A00EB8A0A03F0070B85
:1030A000DAF820704FEA8B0B4FF00F0E0EFA0BFE82
:1030B00027EA0E0E0F6907FA0BF747EA0E07CAF860
:1030C000207001E0032CDAD1076804FA08F43740D5
:1030D0003C4315F4403F046063D04FF0000ACDF844
:1030E00004A0D9F844603A4C46F48046C9F84460DC
:1030F000D9F8446006F480460196019E23F0030649
:1031000006F1804606F59C3603F0030ED6F80880DB
:103110004FEA8E0E0F2707FA0EF7A04228EA07079C
:1031200046D004F58064A04244D004F58064A042F7
:1031300042D004F58064A04240D004F58064A042EF
:103140003ED004F58064A0423CD004F58064A042E7
:103150003AD004F58064A0420CBF0724082404FA86
:103160000EF43C43B46094686FEA0C06EF0254BF5F
:1031700034404CEA04049460D468AF0254BF344035
:103180004CEA0404D4605468AF0354BF34404CEAA2
:10319000040454601468ED0354BF34404CEA040442
:1031A00014600133102B7FF443AF03B0BDE8F08F00
:1031B0005446D4E70124D2E70224D0E70324CEE723
:1031C0000424CCE70524CAE70624C8E7003C0140F4
:1031D00000000240003802400369194214BF012078
:1031E000002070470AB1816170470904FBE70000C5
:1031F000044A5169014208B502D0506130F0C0F96B
:1032000008BD00BF003C01402DE9F043054685B0F4
:1032100095F8F8429DF830E09DF83480BDF838907C
:10322000012C25D0012485F8F8422C2404FB0154FC
:10323000D009002702F07F0684F83D7084F838300A
:1032400084F8391084F83F8084F83A6084F83B00B1
:1032500084F83CE0A4F840902868CDF800E0CDE97F
:10326000018902F099FA85F8F87205B0BDE8F0839B
:103270000220FAE710B590F8F832012B044609D085
:10328000012380F8F832006802F00BFB002084F87C
:10329000F80210BD0220FCE72DE9F04106468AB095
:1032A000002843D090F8F932046803F0FF021BB9FC
:1032B00080F8F8223AF002FD032386F8F932E36B36
:1032C000344613F4807354F8100B08BF336102F0D6
:1032D000D1F80FCC6D460FC50FCC0FC594E8030095
:1032E00085E8030006F10408374698E80E003068C8
:1032F00002F07AF857F8100B012102F0C1F80FCF55
:10330000EC46ACE80F000FCFACE80F0094E80300E8
:1033100085E8030098E80E00306802F067F90123A1
:1033200086F8F93200200AB0BDE8F0810120FAE702
:10333000F0B42C2606FB01069DF81070059DBDF823
:1033400018409DF81CC086F83B2086F83F307FB9B6
:103350000327022B86F8427086F83DC03CD0BB4262
:103360003AD0012B1FD12C2303FB0103002230E0B4
:103370004FF0020C86F842C0032B14D801A656F871
:1033800023F000BF9533000867330008D9330008E5
:10339000D9330008012F06D12AB92C2303FB0103DE
:1033A0009CB983F855702C2202FB0103DC640024D5
:1033B00083F83910A3F860401946027C5D641C65EF
:1033C0000068F0BC383102F0DBBA93F85560002E8B
:1033D000E9D183F84220E6E72C2303FB01032AB955
:1033E00093F85560002EF4D00222F2E793F85420AF
:1033F000002AF9D1EDE700BF2DE9F04F076885B04D
:103400000446384602F0EDF8012840F0F8802068C4
:1034100002F0E3F8002800F0F280206802F0DDF806
:10342000850248BF2368206844BF4FF400125A61E8
:1034300002F0D3F8C00248BF2368206844BF4FF4AD
:1034400080125A6102F0C9F8410148BF2368206820
:1034500044BF4FF080625A6102F0BFF8820748BF54
:103460002368206844BF02225A6102F0B6F8830044
:1034700015D523684FF000525A61D7F84034DE0763
:103480000DD41021384602F02BF8384602F04EF8E1
:103490002068012102F016F920463AF059FC206814
:1034A00002F09BF8C5013DD52568D5F8403402935C
:1034B000D5F840340393039B23F02E030393029B20
:1034C000980709D5029BD90702D520463AF03CFC63
:1034D000039B43F002030393029B1A0718D5039B37
:1034E00043F008030393029B5B0740F19380A169BB
:1034F000022940F08780029B206803F4C023B3F5C3
:10350000802F18BF012102F0DDF820463AF028FC98
:10351000029B9E0642BF039B43F020030393039B41
:10352000C5F84034206802F058F8050705D5204654
:103530003AF006FC236808225A61206802F04DF830
:10354000C00644D52668B36923F01003B361336A1B
:10355000C3F34342022A35D1C3F30A19B9F1000F6C
:1035600030D003F00F082C2505FB0845696C49B3E2
:103570002B6DEA6C4B44934250D84A46304602F0D9
:103580000CF86B6CB5F840104B446B6406F5A06604
:103590002B6D4FEA481206EB48184B4489452B65C2
:1035A000D8F810300ED1C3F3C9435BB1B35823F040
:1035B000804343F00043B35095F8543083F0010347
:1035C00085F854302268936943F0100393612068B2
:1035D00002F003F8810112D5206802F05DF907F5C9
:1035E000A063019000934FF0000A2C264FF00208D0
:1035F000A3682068534515D84FF00073436105B0A8
:10360000BDE8F08FE368012B04BF4EF66022C5F8D9
:1036100004247AE720463AF0A7FB79E7042385F8EB
:103620006030CFE7019A0AF00F0322FA03F3DA07BA
:1036300040F19180009B5FFA8AF51A6800F5A06757
:1036400007EB451B12F4004F4FEA4519DBF8082041
:1036500000F0FE80530706D50422CBF8082006218F
:1036600006FB05420AE0DBF80820D1050CD54FF433
:103670008072CBF80820072106FB054282F8611012
:10368000294602F00EF906E0DBF8082092060FD575
:103690002022CBF80820DBF80820930525D52068E8
:1036A000294602F0FEF84FF40072CBF8082052E0F1
:1036B000DBF80820130706D50822CBF808200521DF
:1036C00006FB0542DAE7DBF80820510507D54FF481
:1036D0008062CBF80820082106FB0542CEE7DBF824
:1036E00008201206D7D58022B7E7DBF80820D007DC
:1036F00046D5226942B106FB0540DBF81010826C0A
:10370000C1F31201521A026506FB05410122002095
:1037100081F86120C865CBF8082091F83F2012F0AD
:10372000FD021ED12068294602F0BBF81022CBF81A
:1037300008202369012B06FB054506D1B5F840207A
:10374000AB6CB3FBF2F3D90705D595F8543083F091
:10375000010385F85430009B20330AF1010A0093DD
:1037600046E7012AE5D157F8093043F0005347F8FE
:103770000930204681F8602029463AF0EDFAD8E772
:10378000DBF8083013F0020346D006FB054191F840
:103790006120012A0CD181F8602006FB0543CBF89B
:1037A000088093F86020294620463AF0D5FAD2E7FF
:1037B000033A052AF1D801A151F822F0ED370008AB
:1037C0009B370008373A0008D5370008073800084B
:1037D000D537000806FB0541CA6D0132022ACA65C9
:1037E00040F22D810022CA650422D4E706FB05427F
:1037F00082F8608057F8092022F0804242F00042AF
:1038000047F80920C9E706FB0542D16D0131D165B2
:10381000042182F86010C0E7DBF808202068D20697
:1038200099D506FB054191F83F20032A05D1CB65C8
:10383000294602F036F8102237E712F0FD02FAD1DD
:10384000CA652269002AF6D1032281F86120EFE7D8
:1038500012F0040208D00422CBF8082006FB05432E
:10386000062283F8612011E0DBF808108B0611D5E1
:10387000202106FB0543CBF8081093F83D100129E1
:103880007FF469AF83F83D2083F86080294602F019
:1038900008F860E7DBF8081011F4007104D04FF469
:1038A0000072CBF80820F1E7DBF8083013F00103D1
:1038B00012D006FB054206FB0543D165DBF8081074
:1038C000490641BF012182F83D104022CBF8082073
:1038D0000122CBF80820C4E7DBF8082052060DD5FA
:1038E00006FB0542042182F86110012182F83D1097
:1038F000D365294601F0D5FF4022D6E6DBF8082043
:10390000110706D50822CBF8082006FB054305223F
:10391000A7E7DBF80820D20614D506FB05420021F4
:10392000D165032182F8611092F83D1000297FF4DF
:103930007FAF92F83C1000297FF47AAF012182F822
:103940003D1075E7DBF8082013061FD522694AB938
:1039500006FB0542062182F86110294601F0A1FF0D
:103960008022A2E606FB0541CA6D0132022ACA6521
:1039700009D90022CA65042281F860202046294620
:103980003AF0EAF9ECE781F86080E9E7DBF8082033
:1039900051050AD506FB0542082182F86110294627
:1039A00001F07FFF4FF480627FE6DBF8082092078A
:1039B0007FF5D1AE06FB054292F86110012921D1B5
:1039C00082F8601092F83F10023901293FF6E5AE07
:1039D000216931B992F8551081F0010182F8551032
:1039E000DBE601297FF4D9AED16C00293FF4D5AED6
:1039F000B2F8400001390144B1FBF0F1CB077FF58B
:103A0000CCAEE7E7033905293FF6C7AE01A252F86D
:103A100021F000BF2D3A00082D3A0008373A00087F
:103A2000D53700089B370008D537000806FB05424C
:103A300082F86080B1E606FB05420521E9E681F8DF
:103A40006080D7E610B590F8F832012B04460CD010
:103A5000012180F8F812006801F06EFE206801F084
:103A600003FD002084F8F80210BD0220FCE710B529
:103A700090F8F832012B044609D0012380F8F8327F
:103A8000006802F023F8002084F8F80210BD02203C
:103A9000FCE7006801F032BE2C2303FB010191F822
:103AA000600070472C2303FB0101086D704700681C
:103AB00001F06DBE006801F05FBE704710B5054CA7
:103AC0006369DB0304D5FFF7F8FF4FF480336361CC
:103AD00010BD00BF003C01402DE9F341044640B356
:103AE0000368DD0710D4236898075BD423681A079E
:103AF00000F19D8023685B0700F1BD80A06900286C
:103B000040F0248100202CE08D4B9A6802F00C02DA
:103B1000042A07D09A6802F00C02082A0BD15B68CD
:103B2000590208D5864B1B689A03DCD56368002BC5
:103B3000D9D1012015E06368814DB3F5803F13D1E1
:103B40002B6843F480332B60FFF728F87C4E054642
:103B500033689B03C7D4FFF721F8401B6428F7D9CB
:103B6000032002B0BDE8F081B3F5A02F04D12B688B
:103B700043F480232B60E3E72A6822F480322A6032
:103B80002A6822F480222A60002BDDD1FFF706F894
:103B900006462B689F03A6D5FFF700F8801B642814
:103BA000F7D9DDE7664B9A6812F00C0F07D09A68D8
:103BB00002F00C02082A11D15B685E020ED4604A42
:103BC00013689D0702D5E368012BB2D11368216900
:103BD00023F0F80343EAC103136087E7E268594B17
:103BE000B2B101221A60FEF7D9FF554D06462B6887
:103BF000980707D52B68226923F0F80343EAC2032C
:103C00002B6073E7FEF7CAFF801B0228EFD9A7E7F6
:103C10001A60FEF7C3FF4A4E0546336899077FF5E1
:103C200065AFFEF7BBFF401B0228F6D998E7626933
:103C3000444B82B10122C3F8802EFEF7AFFF404E05
:103C40000546736F9F073FF555AFFEF7A7FF401B73
:103C50000228F6D984E7C3F8802EFEF79FFF384E7E
:103C60000546736F98077FF545AFFEF797FF401B3A
:103C70000228F6D974E7324B1A6C12F0805228D120
:103C800001921A6C42F080521A641B6C03F080534C
:103C90000193019B01272C4D2B68D9051BD5A368E7
:103CA000274D012B27D12B6F43F001032B67FEF724
:103CB00075FF234E054641F28838336F9B0739D58F
:103CC000002F3FF41BAF1E4A136C23F08053136484
:103CD00014E70027DFE72B6843F480732B60FEF7BF
:103CE0005DFF06462B68DA05D9D4FEF757FF801B27
:103CF0000228F7D934E7052B04D12B6F43F00403D6
:103D00002B67D0E72A6F22F001022A672A6F22F080
:103D100004022A67002BCAD1FEF740FF41F288381F
:103D200006462B6F9807CBD5FEF738FF801B404522
:103D3000F7D915E7FEF732FF401B4045BDD90FE725
:103D4000003802400000474200700040364DAB682A
:103D500003F00C03082B3DD0344B002202281A66D6
:103D60002BD1FEF71BFF06462B6899011FD4D4E91F
:103D700007321343626A43EA8213E26A43EA026348
:103D8000A26A5208013A43EA02436B60274B264D70
:103D900001221A66FEF702FF04462B689A013FF5DE
:103DA000B1AEFEF7FBFE001B0228F6D9D8E6FEF7FF
:103DB000F5FE801B0228D7D9D2E6FEF7EFFE0446B7
:103DC0002B689B017FF59EAEFEF7E8FE001B0228E4
:103DD000F6D9C5E601283FF4C4AE6B68E26903F486
:103DE000800191427FF4A5AE216A03F03F028A422E
:103DF0007FF49FAE616A47F6C0721A40B2EB811F32
:103E00007FF497AEA26A520803F44031013AB1EB55
:103E1000024F7FF48EAEE26A03F07063B3EB026F81
:103E20003FF470AE85E600BF003802400000474214
:103E3000134908B58B6803F00C03042B1CD0082B26
:103E40001CD14A684B68496813F4800314BF0D48BD
:103E50000D48C1F3881118BF002302F03F02A1FBF7
:103E60000001FCF721FF064B5B68C3F301430133FC
:103E70005B00B0FBF3F008BD0248FCE70248FAE73C
:103E80000038024000127A000024F4002DE9F041CD
:103E90000D46044610B90120BDE8F081434B1A6875
:103EA00002F007028A4228D321688F072DD4C80761
:103EB00040D43E4B1A6802F00702AA4265D8226835
:103EC00051076BD4130707D5394A2169936823F446
:103ED000604343EAC1039360FFF7AAFF344B354ABE
:103EE0009B68C3F30313D35CD840334B1860334B48
:103EF0001868FEF701F80020CEE7CAB21A701B68F6
:103F000003F007038B42C6D1CEE7294B11F0040F13
:103F10001EBF9A6842F4E0529A600E0742BF9A6848
:103F200042F460429A609A68A06822F0F00202436C
:103F30009A60BCE762681E4B012A1CD11B6813F40F
:103F4000003FA8D01A4EB36823F003031343B360B5
:103F5000FEF724FE41F288380746B368626803F032
:103F60000C03B3EB820FA4D0FEF718FEC01B404534
:103F7000F3D9032090E7911E01291B6802D813F0A2
:103F8000007FDEE713F0020FDBE7EAB21A701B686E
:103F900003F00703AB427FF47EAF90E70449E0688B
:103FA0008B6823F4E05303438B608BE7003C0240B3
:103FB0000038024018440408040000100C000010EF
:103FC000044B054A9B68C3F38223D35C034A106801
:103FD000D84070470038024028440408040000100C
:103FE000044B054A9B68C3F34233D35C034A106811
:103FF000D8407047003802402844040804000010EC
:104000000F2303600B4B9A6802F0030242609A6828
:1040100002F0F00282609A6802F4E052C2609B688B
:10402000DB0803F4E0530361034B1B6803F0070351
:104030000B60704700380240003C0240036813F0F8
:10404000050FF7B5044605D1236813F002032AD102
:10405000002026E0424B434E00229A66FEF79EFD6A
:10406000054633681F0116D4D4E901231B0743EA30
:104070008213C6F884303A4B3A4E01229A66FEF714
:104080008DFD054633681801DED4FEF787FD401B21
:104090000228F7D904E0FEF781FD401B0228E0D991
:1040A000032003B0F0BD002301932E4B2E4D1A6C5C
:1040B00042F080521A641B6C03F080530193019B01
:1040C0002B6843F480732B60FEF768FD06462B686F
:1040D000D9051BD5234DE2682B6F13F440731BD118
:1040E000E36803F44072B2F5407F1E4A34D1916810
:1040F00023F0704021F4F81120F4407001439160E6
:10410000116FC3F30B030B431367A1E7FEF746FDE3
:10411000801B0228DBD9C3E702F440729342DFD050
:104120002B6F0F4A0121C2F8401E23F44073002177
:10413000C2F8401E2B672B6FDA07D1D5FEF72EFD94
:1041400041F2883706462B6F9B07C9D4FEF726FD40
:10415000801BB842F7D9A3E7916821F4F811CEE7A4
:1041600000004742003802400070004070470000E5
:1041700003689A68D20410B504460AD5DB68D905ED
:1041800007D5FFF7F3FF2268D368DBB263F4C0738F
:10419000D36023689A6892040BD5DB689B0508D529
:1041A000204600F0C7FA2268D368DBB263F42073BC
:1041B000D360034B4FF400325A610123637710BD83
:1041C000003C0140026838B5D36823F0A003D360F7
:1041D0000446FEF7E3FC05462368DB689B0601D531
:1041E000002038BDFEF7DAFC401BB0F57A7FF3D92A
:1041F0000320F6E7F8B50368DC6814F040040546D0
:1042000017D1DA6842F08002DA60FEF7C7FC0427B3
:1042100006462B68DB685B0600D40CB12046F8BD6F
:10422000FEF7BCFC801BB0F57A7F84BF6F7701245A
:10423000EFE70024F2E70368DA6822F0800210B5A5
:10424000DA609B689B06044601D5002010BDFFF78D
:10425000B9FF0028F9D0042363770120F6E710B5F1
:10426000044600283AD0437F03F0FF0213B90277D7
:10427000FDF73EFD022363772368CA225A62532268
:104280005A622046FFF7B6FF20BB236820699A6870
:1042900022F4E00222F040029A60626899680243C8
:1042A000606902430A439A60E2681A611A69A16868
:1042B00042EA01421A612046FFF7BDFF50B9236868
:1042C000A1691A6C22F480221A641A6C0A431A64D7
:1042D000012363772368FF225A6210BD0120FCE7A7
:1042E00000230928DAB203F1010303D840EA0210DF
:1042F000C0B270470A38C0B2F3E72DE9F041037F3E
:10430000012B06460F464FF0020041D001233168D1
:104310003377707738787D78BC788B68002A39D10C
:1043200013F0400308BFFB70FFF7DAFF8046284612
:10433000FFF7D6FF05462046FFF7D2FFFB7840EA9D
:10434000835343EA084343EA0524CA234B625323B9
:104350004B623046FFF74EFFA8B9326804F07F3455
:1043600024F0FE441460936823F480239360D7E91B
:104370000330916803430B4393603046FFF75BFFC4
:1043800008B9012373773368FF225A620023337719
:10439000BDE8F08113F0400308BFFB702D02FA78EE
:1043A00045EA004545EA040343EA8254CDE7F8B5FF
:1043B000037F012B05464FF0020339D001202877F7
:1043C0006B770C78C8784E788F78640392BBF306CD
:1043D00003D526F010060A364E70FFF781FF064619
:1043E0004878FFF77DFF01463846FFF779FF40EA3E
:1043F000040343EA064343EA01242B68CA225A62B3
:1044000053225A622846FFF7F5FE58B92A6824F06D
:104410007F4424F0C00454602846FFF70CFF08B91D
:1044200001236B772B68FF225A6200232B77F8BD9C
:104430001846FCE744EA00443C4344EA0624DCE72F
:104440002DE9F347544B1E684FF4FA43B6FBF3F6DD
:104450004FF47A735E43037F0196012B05464FF0BC
:1044600002034AD001202C6828776B77087891F8EE
:10447000018091F8029091F82070A368002A40D141
:1044800013F0400308BFCB70FFF72AFF8246404677
:10449000FFF726FF80464846FFF722FF8146384651
:1044A000FFF71EFFCA694B691343CA7843EA825378
:1044B00043EA090343EA0A4343EA082343EA006361
:1044C0008A6948681043CA226262532262624A6A59
:1044D000B2F5807FA26844D122F48072A260E268C3
:1044E000D2B262F4C072E260019A511E0191DAB94F
:1044F000FF23636203236B772A77184602B0BDE877
:10450000F08713F040034A6908BFCB70CB691343AF
:1045100043EA0903CA7843EA004343EA082343EA2B
:10452000825343EA0763CBE7E268D107DCD5E36156
:104530006064A36843F48073A360A36843F480536A
:10454000A360164B1A6842F400321A609A6842F46B
:1045500000329A60FF23636201236B7700232B777D
:10456000CBE722F40072A260E268D2B262F4207259
:10457000E2600196019A511E0191002AB8D0E268CA
:104580009207F7D52362A064A36843F40073A36085
:10459000A36843F40053D3E704000010003C01403B
:1045A000030903EB830300F00F0000EB4300C0B2EC
:1045B000704738B50368986A486018691B68C0F38B
:1045C0000E00C3F3062503F07F048860C3F30540A3
:1045D000C3F3805308704D708C70CB7052B9FFF7E5
:1045E000DFFF08702846FFF7DBFF48702046FFF723
:1045F000D7FF8870002038BD38B503685B68C3F307
:104600000740C3F3042503F03F04C3F34233C870EB
:104610004D708C700B7052B9FFF7C2FFC8702846FE
:10462000FFF7BEFF48702046FFF7BAFF88700020F2
:1046300038BD000073B5314B1C684FF4FA43B4FB2E
:10464000F3F44FF47A735C43037F0194012B4FF032
:10465000020314D04377012503680577CA255D62FC
:1046600053255D629D6815F4806F0FD0019D6E1E0D
:1046700001963DB9FF225A62032343770577184616
:1046800002B070BDDD6815F0040FEEE79D6825F4FB
:1046900080659D60DD68EDB265F49065DD60019434
:1046A000019C651E01952CB9FF225A6203234377B2
:1046B0000477E4E7DC686407F2D59C6824F007041B
:1046C0009C609C6822439A600D4A5961116841F4CC
:1046D00080011160916841F4800191609A6842F410
:1046E00080429A609A6842F480629A60FF225A621D
:1046F0000123437700230377C1E700BF04000010C4
:10470000003C01400368DB685B0510B5044607D533
:10471000FDF71EFB2268D368DBB263F49063D360BD
:10472000034B4FF480025A610123637710BD00BF31
:10473000003C0140704770B50E461546044628B34C
:1047400090F8493003F0FF021BB980F84820FCF7CD
:104750004DFD04F10801206800F0B2FDA268206858
:10476000314600F0DFFD236BA2686068294600F047
:10477000F7FD2268A16852F8213043F0010342F8A6
:104780002130012384F84930002070BD0120FCE76E
:104790007047000090F83D30012B30D1022380F8A3
:1047A0003D300368DA6842F00102DA60154A93424C
:1047B0001AD0B3F1804F17D0A2F57C42934213D0A8
:1047C00002F5806293420FD002F5806293420BD0D3
:1047D00002F57842934207D002F57052934203D01B
:1047E000A2F59432934204D19A6802F00702062A95
:1047F00003D01A6842F001021A60002070470120BD
:10480000704700BF00000140704770477047704715
:1048100003681A69910710B504460ED5DA68920745
:104820000BD56FF002021A61012202779B699B0788
:1048300077D0FFF7EAFF0023237723681A69500730
:1048400010D5DA6851070DD56FF004021A61022203
:1048500022779B6913F4407F204668D0FFF7D5FF8D
:104860000023237723681A6912070FD5DA68100727
:104870000CD56FF008021A6104222277DB699907D0
:1048800020465AD0FFF7C1FF0023237723681A6917
:10489000D20610D5DA68D0060DD56FF010021A6175
:1048A00008222277DB6913F4407F20464BD0FFF7C4
:1048B000ACFF0023237723681A69D10708D5DA688B
:1048C000D20705D56FF001021A612046FDF788F97D
:1048D00023681A69100608D5DA68110605D56FF045
:1048E00080021A61204600F0C8F823681A6952064F
:1048F00008D5DA68500605D56FF040021A612046E7
:10490000FFF785FF23681A69910622D5DA689206B7
:104910001FD56FF0200220461A61BDE8104000F05C
:10492000ABB8FFF771FF2046FFF770FF83E7FFF793
:104930006BFF2046FFF76AFF92E7FFF765FF20460F
:10494000FFF764FFA0E7FFF75FFF2046FFF75EFF7A
:10495000AFE710BD304A0368904212D0B0F1804FEB
:104960000FD0A2F57C4290420BD002F580629042BB
:1049700007D002F58062904203D002F5784290425F
:1049800019D14A6823F070031343234A904229D077
:10499000B0F1804F26D0A2F57C42904222D002F5A1
:1049A000806290421ED002F5806290421AD002F5D9
:1049B0007842904216D0194A904213D002F5806294
:1049C00090420FD002F5806290420BD0A2F598324F
:1049D000904207D002F58062904203D002F58062D7
:1049E000904203D1CA6823F4407313434A6923F009
:1049F0008003134303608B68C3620B688362064BBA
:104A0000984203D003F58063984201D10B69036398
:104A100001234361704700BF000001400040014096
:104A200010B5044630B390F83D3003F0FF021BB9D7
:104A300080F83C20FFF7ACFE0223206884F83D306C
:104A4000211DFFF787FF012384F84630002084F8FA
:104A50003E3084F83F3084F8403084F8413084F8A8
:104A6000423084F8433084F8443084F8453084F888
:104A70003D3010BD0120FCE770477047026802F12D
:104A80000C0353E8003F23F490730C3242E80031EA
:104A900002680029F2D102F1140353E8003F23F029
:104AA000010302F1140C4CE800310029F3D1036B2F
:104AB000012B0BD102F10C0353E8003F23F010034C
:104AC00002F10C0C4CE800310029F3D1202380F8CE
:104AD0003E300023036370470268C168136923F402
:104AE00040530B4370B51361054683680069D16874
:104AF000034368690343E86921F4164121F00C017E
:104B000003430B43D3605369A96923F440730B43F8
:104B100053611F4B9A4203D003F580639A4223D11D
:104B2000FFF75EFAEB691921B3F5004FD5E90046AE
:104B3000A0FB01011BD1B2194FF000035B41FCF750
:104B4000B3F86422B0FBF2F102FB1103DB00323355
:104B5000B3FBF2F303F007025B0002EB011203F474
:104B6000F8731344A36070BDFFF72AFADAE7B200C6
:104B7000B30FFCF799F86422B0FBF2F102FB1103CA
:104B80001B013233B3FBF2F303EB0113EAE700BF7F
:104B900000100140F8B504460E4617461D4622682F
:104BA000136836EA030301D1002028E06B1CF7D01C
:104BB00025B1FDF7F3FFC01B8542F0D2226802F158
:104BC0000C0353E8003F23F4D0730C3242E800306A
:104BD00021680028F2D101F1140353E8003F23F0CB
:104BE000010301F1140040E80032002AF3D1202330
:104BF00084F83D3084F83C2084F83E300320F8BD32
:104C000010B5044640B390F83D3003F0FF021BB9E5
:104C100080F83C20FDF79CFE2268242384F83D3078
:104C2000D36823F40053D3602046FFF755FF236871
:104C30001A6922F490421A615A6922F02A025A61D2
:104C4000DA6842F40052DA6000202023206484F8FD
:104C50003D3084F83E3010BD0120FCE7F7B5174623
:104C600090F83D200093202A04460E4649D10029A1
:104C700045D0002F43D090F83C20012A41D001229A
:104C800080F83C2000252122056480F83D20FDF7B6
:104C900085FFA168009BA784B1F5805F0246E78489
:104CA00003D1216909B935460E46002184F83C102C
:104CB000E18C89B241B940212046FFF76BFF60B912
:104CC000202384F83D3009E080212046CDE90023EF
:104CD000FFF760FFDDE9002310B1032003B0F0BD52
:104CE00020684EB935F8021BC1F308014160E18C20
:104CF000013989B2E184DBE716F8011BF6E70120F0
:104D0000ECE70220EAE710B50268536990F83D101D
:104D10002129044620D119061ED502F1140353E8B7
:104D2000003F23F0800302F1140040E80031002925
:104D3000F3D1606B08B1FEF765F8226802F10C034D
:104D400053E8003F23F0C0030C3242E80031002951
:104D5000F3D1202384F83D302268536994F83E1043
:104D6000222914D15B0612D502F1140353E8003F47
:104D700023F0400302F1140040E800310029F3D190
:104D8000A06B08B1FEF73EF82046FFF777FE002043
:104D900010BD704770477047704708B5806B036857
:104DA0005A6990F83D10212912D1120610D500221F
:104DB000C28403F10C0252E8002F22F0C00203F17A
:104DC0000C0C4CE800210029F3D1202280F83D2072
:104DD0005B6990F83E20222A05D15B0603D50023AB
:104DE000C385FFF74BFE036C43F010030364FFF72A
:104DF000D3FF08BD08B5806B0023C385C384FFF7CC
:104E0000CBFF08BD7047806B08B5036B012B04D145
:104E1000818D4908FFF7F6FF08BDFFF7BCFFFBE7F0
:104E200008B50346806B1B681B6813F4807337D189
:104E3000C385026802F10C0353E8003F23F480733A
:104E40000C3242E8003103680029F2D103F1140268
:104E500052E8002F22F0010203F1140C4CE800216B
:104E60000029F3D103F1140252E8002F22F040028E
:104E700003F1140C4CE800210029F3D1202280F822
:104E80003E20026B012A0BD103F10C0252E8002FE5
:104E900022F0100203F10C0C4CE800210029F3D1A0
:104EA000036B012B03D1818DFFF7ACFF08BDFFF72A
:104EB00071FFFBE790F83E30222B07B541D18168A6
:104EC000836A0268B1F5805F3ED1016900293ED155
:104ED0005268C2F3080223F8022B8362C38D013BA0
:104EE0009BB2C385002B2CD10268D16821F0200130
:104EF000D160D16821F48071D160516921F0010144
:104F00005161202280F83E20026B012A026828D1DC
:104F1000036302F10C0353E8003F23F0100302F196
:104F20000C0C4CE800310029F3D11368DB0605D5E1
:104F300001911368019353680193019B818DFFF7E1
:104F400061FF03B05DF804FB39B9016929B9526802
:104F5000D2B21A70836A0133BFE7526802F07F024F
:104F6000F7E7FFF717FFECE703681A6873B5160752
:104F7000D9685D69044608D1960668D58D0666D560
:104F800002B0BDE87040FFF795BF05F0010001F4E5
:104F9000907505435BD0D60705D5CD0542BF236C80
:104FA00043F001032364530704D518B1236C43F085
:104FB00002032364960704D518B1236C43F004035D
:104FC0002364150707D501F0200303431EBF236C9C
:104FD00043F008032364236C002B32D0920604D5DF
:104FE0008B0602D52046FFF765FF26687369226CA1
:104FF00003F0400302F0080253EA0205204622D0E3
:10500000FFF73CFD73695E0618D5226802F11403B0
:1050100053E8003F23F04003143242E800310029F6
:10502000F3D1A06B50B1724B0365FDF72AFF40B17D
:10503000A06B036D02B0BDE8704018472046FFF733
:10504000ABFE02B070BDFFF7A7FE2564F9E7206B49
:10505000012840F09180D50640F18E80C80640F1CD
:105060008B80002201921A6801925A680192019A7B
:105070005A6952064CD5A16B0A68526892B2002A4E
:10508000DFD0A08D9042DCD9E285CA69B2F5807F7D
:1050900036D003F10C0252E8002F22F4807203F1A3
:1050A0000C0040E800210029F3D103F1140252E87A
:1050B000002F22F0010203F1140040E80021002932
:1050C000F3D103F1140252E8002F22F0400203F161
:1050D000140040E800210029F3D1202284F83E206A
:1050E000216303F10C0252E8002F22F0100203F1B9
:1050F0000C0040E800210029F3D1A06BFDF782FEEF
:10510000E38DA18DC91A89B22046FFF77BFE98E78F
:10511000E28DE08DA18D80B292B2002891D0891AE3
:1051200089B200298DD003F10C0252E8002F22F43D
:10513000907203F10C0545E800200028F3D103F13B
:10514000140252E8002F22F0010203F1140545E891
:1051500000200028F3D1202284F83E20206303F1B0
:105160000C0252E8002F22F0100203F10C0545E872
:1051700000200028F3D1C7E7160628D50D0626D54E
:1051800094F83D20212A7FF45CAFA168226AB1F532
:10519000805F17D12169A9B932F8021BC1F3080158
:1051A00059602262E28C013A92B2E284002A7FF4D2
:1051B00048AFDA6822F08002DA60DA6842F0400232
:1051C000DA603EE7511C216212785A60EAE7500625
:1051D0007FF537AF4A067FF534AFDA6822F0400238
:1051E000DA60202384F83D302046FFF7D2FD28E71F
:1051F000F54D000873B5134600258285222204462A
:105200000564816280F83E20806B1E4AC2631E4A9C
:10521000266802641D4AC0E913250A46311DFDF7C0
:10522000B7FD236801951A6801925A680192019AA4
:10523000226984F83C505AB103F10C0252E8002F65
:1052400042F4807203F10C0040E800210029F3D100
:1052500003F1140252E8002F42F0010203F114009E
:1052600040E800210029F3D103F1140252E8002F95
:1052700042F0400203F1140141E800200028F3D17C
:1052800002B070BD214E0008074E00089B4D00087B
:1052900070B490F83E60202E10D161B15AB190F8F0
:1052A0003C40012C0AD0012480F83C4000240463D7
:1052B00070BCFFF79FBF012070BC70470220FBE766
:1052C0000A6850F8223023F0010370B58C6840F86A
:1052D00022304B68CE6850F82250234333430E6986
:1052E00033434E693343CE6933430E6A33434E6AC8
:1052F00033438E6A3343CE6A33430E6B33438E6936
:10530000C96B33430B43064929400B43A4F1080101
:105310004C424C4143EA841340F82230002070BDD7
:105320008000F0FF0B6810B58C6923434C6843EA9A
:1053300004138C6843EA0423CC6800EB820243EA3E
:1053400004430C6949695068013C43EA045302393B
:1053500043EA016300F040410B435360002010BD5D
:10536000B3F5804F30B514D18D690B6850F82240E9
:105370002B434D6843EA05138D68C96843EA05234A
:1053800043EA0143044921400B4340F82230002006
:1053900030BD6FF07043F8E70000F0CF82B000231B
:1053A000104A0193019B01330193019B934216D84C
:1053B0000369002BF6DA002301930369094A43F0DD
:1053C00001030361019B01330193019B934206D8C2
:1053D000036913F00103F5D1184602B070470320AA
:1053E000FBE700BF400D030084B038B505AD85E88C
:1053F0000E000A9B012B044625D1836B23F48033D6
:105400008363C36823F4840323F04003C360C36849
:1054100023F44013C360119B012B02BFC36843F404
:105420008013C360FFF7BAFF089B012B07D1A36865
:1054300043F00603A360A36843F02003A360BDE824
:10544000384004B07047C36843F04003C360FFF7BF
:10545000A5FF0E9B23B9A36B43F48033A363E3E75B
:10546000A36B23F48033F9E7836843F0010383607F
:1054700000207047836823F0010383600020704799
:1054800038B5C368012923F0C0430546C36010D175
:10549000C36843F00053C36000240120FDF784FB80
:1054A0006B69D90704F1010415D4322CF5D1012020
:1054B00038BD0029FBD1C36843F08043C3600C466C
:1054C0000120FDF771FB6B69DA0704F1010402D5D5
:1054D000322CF5D1EBE7A4F1320358425841E7E70B
:1054E00082B00023104A0193019B01330193019B79
:1054F000934216D80369002BF6DA8901002341F0A4
:105500002001094A01930161019B01330193019B31
:10551000934206D8036913F02003F5D1184602B070
:1055200070470320FBE700BF400D030082B000235B
:105530000F4A0193019B01330193019B934214D8BD
:105540000369002BF6DA00230193094A1023036153
:10555000019B01330193019B934206D8036913F029
:105560001003F5D1184602B070470320FBE700BFD7
:10557000400D030010B59DF8084044B903330132D3
:105580009B0800EB023001EB83038B4201D100202A
:1055900010BD51F8042B0260F7E770B500239408A2
:1055A00000F5805502F00302A34211D301EB840100
:1055B00062B100F5805000230468D80024FA00F09E
:1055C000C854013398B28242F7D11144084670BDE5
:1055D0002E6841F823600133E6E742698069104094
:1055E0007047406900F001007047000084B070B55A
:1055F000044605A880E80E000023C4F8003EA36B13
:1056000043F40013A363A36B23F40023A363A36BEE
:1056100023F48023A363E36BDA053BD5079B012BBF
:10562000D4F8003438D143F00403C4F80034102116
:105630002046FFF755FF01462046FFF777FF084356
:10564000C0B200384FF00003069E18BF012004F5D9
:10565000A0621D464FF0FF319E4220D1A5616161DD
:10566000E36BDB0520D54FF40073636203F18073B5
:10567000A362114BC4F80031089B1BB9A36943F026
:105680001003A361A2690D4B1343A361BDE87040F1
:1056900004B07047D4F8003423F00403C5E79160E8
:1056A0000133D5602032D7E78023636203F5C0035E
:1056B000A362034BDEE700BF0003E000080020A365
:1056C000E0004000D0F8003423F0030310B5C0F828
:1056D0000034D0F8004401F003032343012900F50E
:1056E0008062C0F8003404D14BF680335360002050
:1056F00010BD0229FBD141F27073F7E737B50025E1
:105700000195D0F840340193019B23F02E030193BF
:10571000019B43F480730446C0F840346420FDF7D5
:1057200043FA019B23F48073C4F840340A20FDF748
:105730003BFA284603B030BD82B000230193D0F875
:1057400040340193019B23F02E030193019BDA0463
:1057500006D4012902BF019B43F48053C0F84034B2
:10576000019BDB0405D521B9019B23F48053C0F8CC
:105770004034002002B0704782B000230193D0F87B
:10578000403401930198C0F3414002B0704700F5E6
:105790008060806880B270472DE9F04100EB4117CE
:1057A0001C469DF81C6007F5A0634FF0FF359D6017
:1057B0004FFA82F8032E6BD8DFE806F00260025938
:1057C00040F29D45B8F1000FDD6003DADD6845F475
:1057D00080754AE0C56BED0544D40025D3F80CC0B4
:1057E0004CF0020CC3F80CC0D0F818E401F00F0123
:1057F00001238B4043EA0E03C0F81834836943F059
:1058000000738361FFF7B8FF9DF818304FEAD8782E
:10581000022B4FEAC8383DD1023818BF012041049D
:10582000BDF82000A305C0F30A0003F0FE53D20226
:10583000034302F4F0421343B20443EA080302F4C0
:10584000402213430B4306F0FD06C7F80035012E36
:1058500002BFD7F8003543F00053C7F8003528469B
:10586000BDE8F081DD6845F06005DD60B5E740F238
:105870009D65B8F1000FDD60AFDAA7E740F225259E
:10588000B8F1000FDD60A8DADD6845F4C075ECE71B
:105890000125A3E70021C3E700F58060406980B2DD
:1058A000704737B5002300EB41110193D1F8003563
:1058B000D1F800458568AD0601F5A0624FEA934333
:1058C00001D5002C25DA13F0010FD1F8003543F093
:1058D0008043C1F800351FD183689B0619D4C36A81
:1058E00013F47F0FD1F8003532D123F00043C1F813
:1058F0000035D1F8003543F00043C1F80035019B75
:1059000001330193019BB3F57A7F02D81368002B12
:10591000F5DB002003B030BDD0F8103413F47F0F56
:10592000D1F8003514D123F00043C1F80035D1F887
:10593000003543F00043C1F80035019B013301936A
:10594000019BB3F57A7FE4D81368002BF5DBE0E721
:1059500043F00043C1F80035DBE7000000EB4110E5
:10596000064AC0F81025D0F8003523F0804343F0F4
:105970000043C0F800350020704700BF00000880D9
:105980002DE9FF41C36BDB050C46054649780FD571
:1059900023796BB9012A67D1E37913F0FD0F07D1A1
:1059A00000EB4113D3F80C0520F07000C3F80C0590
:1059B0006369002B63D02689581E3044B0FBF6F093
:1059C00080B2B0F5807F28BF4FF48070E778002F59
:1059D00057D0B4F8088000FB08F894F80AC0C4F85F
:1059E00010804FEA4C7C0CF0C04C05EB41164CEAA1
:1059F000C040C8F3120840EA0800C6F8100512B10A
:105A0000E068C6F81405D5F80804D6F800E52EF0CD
:105A1000005EC6F800E5C043D6F800E5400700F098
:105A2000005040EA0E00C6F80005D6F800050390C5
:105A3000039820F08040039005F5806C039817B31D
:105A400040F400400390039840F000400390039816
:105A5000C6F8000517430ED16BB1E279032A20D8AE
:105A6000DFE802F014281428002AA1D16379012B61
:105A70009ED1FFF773FF002004B0BDE8F081012044
:105A8000A4E79846A9E720F40040DBE7E86ADA1CBF
:105A900080B2C2F38F02904203D2AA6942F0200280
:105AA000AA61002200929BB20A462846E168FFF7ED
:105AB00061FDE0E7DCF81000DA1C80B2C2F38F026F
:105AC0009042EED2AA6942F08062E9E737B500233E
:105AD0000193836823F00103836010210446FFF7DC
:105AE000FFFC01462046FFF721FD0843C0B2003805
:105AF00004F5A06318BF012004F5E06519460A68A3
:105B000022F0802242F0804241F8202BA942F6D1B7
:105B10001A6822F4004242F040421A60019A0132AF
:105B20000192019AB2F57A7F02D81A68002AF5DB51
:105B30002033AB42ECD14FF0FF33C4F8143463612F
:105B4000A36843F00103A36003B030BD08B5034967
